:020000040800F2
:10000000005000209D280008012200080722000857
:100010000D22000813220008192200080000000029
:100020000000000000000000000000001F22000887
:100030002B2200080000000037220008432200089D
:10004000E5280008E5280008E5280008E52800085C
:10005000E5280008E5280008E5280008E52800084C
:10006000E5280008E5280008E5280008E52800083C
:10007000E5280008E5280008E5280008E52800082C
:10008000E5280008E5280008E5280008E52800081C
:10009000E5280008E5280008E5280008E52800080C
:1000A000E5280008E5280008E5280008E5280008FC
:1000B000E5280008E5280008E5280008E5280008EC
:1000C000E5280008E5280008E5280008E5280008DC
:1000D000E5280008E5280008E5280008E5280008CC
:1000E000E5280008E5280008E528000800000000D1
:1000F0000000000000000000000000000000000000
:0C01000000000000000000005FF808F1A3
:1001100010B5054C237833B9044B13B10448AFF341
:1001200000800123237010BDF001002000000000BA
:10013000B483000808B5034B1BB103490348AFF370
:10014000008008BD00000000F4010020B483000816
:1001500010F8012B11F8013B012A28BF9A42F7D071
:10016000D01A7047034613F8012B002AFBD1181A46
:100170000138704781F0004102E000BF83F0004386
:1001800030B54FEA41044FEA430594EA050F08BF32
:1001900090EA020F1FBF54EA000C55EA020C7FEAF6
:1001A000645C7FEA655C00F0E2804FEA5454D4EB73
:1001B0005555B8BF6D420CDD2C4480EA020281EA3D
:1001C000030382EA000083EA010180EA020281EA75
:1001D0000303362D88BF30BD11F0004F4FEA0131C7
:1001E0004FF4801C4CEA113102D0404261EB4101D6
:1001F00013F0004F4FEA03334CEA133302D052425C
:1002000063EB430394EA050F00F0A780A4F1010417
:10021000D5F1200E0DDB02FA0EFC22FA05F2801851
:1002200041F1000103FA0EF2801843FA05F3594137
:100230000EE0A5F120050EF1200E012A03FA0EFCB6
:1002400028BF4CF0020C43FA05F3C01851EBE371E0
:1002500001F0004507D54FF0000EDCF1000C7EEBFD
:1002600000006EEB0101B1F5801F1BD3B1F5001F3B
:100270000CD349085FEA30004FEA3C0C04F101045A
:100280004FEA445212F5800F80F09A80BCF1004F83
:1002900008BF5FEA500C50F1000041EB045141EA05
:1002A000050130BD5FEA4C0C404141EB0101013CCE
:1002B00028BFB1F5801FE9D291F0000F04BF0146BD
:1002C0000020B1FA81F308BF2033A3F10B03B3F18F
:1002D00020020CDA0C3208DD02F1140CC2F10C021F
:1002E00001FA0CF021FA02F10CE002F11402D8BF7D
:1002F000C2F1200C01FA02F120FA0CFCDCBF41EA49
:100300000C019040E41AA2BF01EB0451294330BD17
:100310006FEA04041F3C1CDA0C340EDC04F11404F4
:10032000C4F1200220FA04F001FA02F340EA0300CB
:1003300021FA04F345EA030130BDC4F10C04C4F111
:10034000200220FA02F001FA04F340EA03002946F1
:1003500030BD21FA04F0294630BD94F0000F83F43B
:10036000801306BF81F480110134013D4EE77FEA1E
:10037000645C18BF7FEA655C29D094EA050F08BF6A
:1003800090EA020F05D054EA000C04BF194610464B
:1003900030BD91EA030F1EBF0021002030BD5FEA8F
:1003A000545C05D14000494128BF41F0004130BDB7
:1003B00014F580043CBF01F5801130BD01F000450B
:1003C00045F0FE4141F470014FF0000030BD7FEA7E
:1003D000645C1ABF194610467FEA655C1CBF0B4679
:1003E000024650EA013406BF52EA033591EA030F90
:1003F00041F4002130BD00BF90F0000F04BF002188
:10040000704730B54FF4806404F132044FF00005BA
:100410004FF0000150E700BF90F0000F04BF002133
:10042000704730B54FF4806404F1320410F0004599
:1004300048BF40424FF000013EE700BF42004FEA94
:10044000E2014FEA31014FEA02701FBF12F07F4311
:1004500093F07F4F81F06051704732F07F4208BFC8
:10046000704793F07F4F04BF41F40021704730B5CF
:100470004FF4607401F0004521F000411CE700BF1B
:1004800050EA010208BF704730B54FF000050AE09E
:1004900050EA010208BF704730B511F0004502D59F
:1004A000404261EB41014FF4806404F132045FEAA1
:1004B000915C3FF4D8AE4FF003025FEADC0C18BF4A
:1004C00003325FEADC0C18BF033202EBDC02C2F13C
:1004D000200300FA03FC20FA02F001FA03FE40EACE
:1004E0000E0021FA02F11444BDE600BF70B54FF0D2
:1004F000FF0C4CF4E06C1CEA11541DBF1CEA1355B0
:1005000094EA0C0F95EA0C0F00F0DEF82C4481EA17
:10051000030621EA4C5123EA4C5350EA013518BF37
:1005200052EA033541F4801143F4801338D0A0FB24
:1005300002CE4FF00005E1FB02E506F00042E0FBD1
:1005400003E54FF00006E1FB03569CF0000F18BFD7
:100550004EF0010EA4F1FF04B6F5007F64F540747F
:1005600004D25FEA4E0E6D4146EB060642EAC62112
:1005700041EA55514FEAC52040EA5E504FEACE2E7F
:10058000B4F1FD0C88BFBCF5E06F1ED8BEF1004F82
:1005900008BF5FEA500E50F1000041EB045170BDFE
:1005A00006F0004646EA010140EA020081EA030142
:1005B000B4EB5C04C2BFD4EB0C0541EA045170BD3E
:1005C00041F480114FF0000E013C00F3AB8014F1B8
:1005D000360FDEBF002001F0004170BDC4F1000401
:1005E000203C35DA0C341BDC04F11404C4F1200582
:1005F00000FA05F320FA04F001FA05F240EA0200DD
:1006000001F0004221F0004110EBD37021FA04F612
:1006100042EB06015EEA430E08BF20EAD37070BDCC
:10062000C4F10C04C4F1200500FA04F320FA05F02B
:1006300001FA04F240EA020001F0004110EBD3702D
:1006400041F100015EEA430E08BF20EAD37070BD9D
:10065000C4F1200500FA05F24EEA020E20FA04F376
:1006600001FA05F243EA020321FA04F001F0004125
:1006700021FA04F220EA020000EBD3705EEA430E96
:1006800008BF20EAD37070BD94F0000F0FD101F0C5
:100690000046400041EB010111F4801F08BF013CFE
:1006A000F7D041EA060195F0000F18BF704703F03C
:1006B0000046520043EB030313F4801F08BF013DC3
:1006C000F7D043EA0603704794EA0C0F0CEA13557F
:1006D00018BF95EA0C0F0CD050EA410618BF52EA39
:1006E0004306D1D181EA030101F000414FF000003F
:1006F00070BD50EA410606BF1046194652EA43064D
:1007000019D094EA0C0F02D150EA013613D195EAC0
:100710000C0F05D152EA03361CBF104619460AD108
:1007200081EA030101F0004141F0FE4141F4700112
:100730004FF0000070BD41F0FE4141F4780170BD02
:1007400070B54FF0FF0C4CF4E06C1CEA11541DBF67
:100750001CEA135594EA0C0F95EA0C0F00F0A7F869
:10076000A4EB050481EA030E52EA03354FEA013196
:1007700000F088804FEA03334FF0805545EA1313A9
:1007800043EA12634FEA022245EA111545EA106571
:100790004FEA00260EF000419D4208BF964244F108
:1007A000FD0404F5407402D25B084FEA3202B61A27
:1007B00065EB03055B084FEA32024FF480104FF4FB
:1007C000002CB6EB020E75EB030E22BFB61A75466F
:1007D00040EA0C005B084FEA3202B6EB020E75EB02
:1007E000030E22BFB61A754640EA5C005B084FEA6A
:1007F0003202B6EB020E75EB030E22BFB61A754637
:1008000040EA9C005B084FEA3202B6EB020E75EB41
:10081000030E22BFB61A754640EADC0055EA060E02
:1008200018D04FEA051545EA16754FEA06164FEA45
:10083000C30343EA52734FEAC2025FEA1C1CC0D1F1
:1008400011F4801F0BD141EA00014FF000004FF07E
:10085000004CB6E711F4801F04BF01430020B4F13F
:10086000FD0C88BFBCF5E06F3FF6AFAEB5EB030CF7
:1008700004BFB6EB020C5FEA500C50F1000041EBF4
:10088000045170BD0EF0004E4EEA113114EB5C04C1
:10089000C2BFD4EB0C0541EA045170BD41F4801194
:1008A0004FF0000E013C90E645EA060E8DE60CEA9C
:1008B000135594EA0C0F08BF95EA0C0F3FF43BAFB9
:1008C00094EA0C0F0AD150EA01347FF434AF95EA70
:1008D0000C0F7FF425AF104619462CE795EA0C0F54
:1008E00006D152EA03353FF4FDAE1046194622E721
:1008F00050EA410618BF52EA43067FF4C5AE50EAFB
:1009000041047FF40DAF52EA43057FF4EBAE12E7EA
:100910004FF0FF3C06E000BF4FF0010C02E000BFCB
:100920004FF0010C4DF804CD4FEA410C7FEA6C5CAE
:100930004FEA430C18BF7FEA6C5C1BD001B050EA51
:10094000410C0CBF52EA430C91EA030F02BF90EA3C
:10095000020F0020704710F1000F91EA030F58BFFB
:10096000994208BF90422CBFD8176FEAE37040F05D
:10097000010070474FEA410C7FEA6C5C02D150EAFB
:10098000013C07D14FEA430C7FEA6C5CD6D152EAB6
:10099000033CD3D05DF8040B704700BF844610467B
:1009A00062468C461946634600E000BF01B5FFF77A
:1009B000B7FF002848BF10F1000F01BD4DF808ED4A
:1009C000FFF7F4FF0CBF012000205DF808FB00BF1B
:1009D0004DF808EDFFF7EAFF34BF012000205DF875
:1009E00008FB00BF4DF808EDFFF7E0FF94BF0120C2
:1009F00000205DF808FB00BF4DF808EDFFF7CEFFC3
:100A000094BF012000205DF808FB00BF4DF808ED01
:100A1000FFF7C4FF34BF012000205DF808FB00BFD2
:100A20004FEA410C7FEA6C5C02D150EA013C0AD1EA
:100A30004FEA430C7FEA6C5C02D152EA033C02D1DC
:100A40004FF0000070474FF0010070474FEA41023D
:100A500012F5001215D211D56FF47873B3EB625210
:100A600012D94FEAC12343F0004343EA505311F037
:100A7000004F23FA02F018BF404270474FF00000C9
:100A8000704750EA013005D111F0004008BF6FF007
:100A9000004070474FF00000704700BF80F00040FA
:100AA00002E000BF81F0004142001FBF5FEA410346
:100AB00092EA030F7FEA226C7FEA236C6AD04FEA46
:100AC0001262D2EB1363C1BFD2184140484041408B
:100AD000B8BF5B42192B88BF704710F0004F40F43D
:100AE000000020F07F4018BF404211F0004F41F459
:100AF000000121F07F4118BF494292EA030F3FD025
:100B0000A2F1010241FA03FC10EB0C00C3F1200337
:100B100001FA03F100F0004302D5494260EB4000C6
:100B2000B0F5000F13D3B0F1807F06D340084FEA31
:100B3000310102F10102FE2A51D2B1F1004F40EB26
:100B4000C25008BF20F0010040EA0300704749008E
:100B500040EB0000013A28BFB0F5000FEDD2B0FA2B
:100B600080FCACF1080CB2EB0C0200FA0CF0AABF4E
:100B700000EBC25052421843BCBFD04018437047EC
:100B800092F0000F81F4000106BF80F400000132F2
:100B9000013BB5E74FEA41037FEA226C18BF7FEAC9
:100BA000236C21D092EA030F04D092F0000F08BF0B
:100BB0000846704790EA010F1CBF0020704712F0F2
:100BC0007F4F04D1400028BF40F00040704712F131
:100BD00000723CBF00F50000704700F0004343F096
:100BE000FE4040F4000070477FEA226216BF0846CC
:100BF0007FEA23630146420206BF5FEA412390EA8F
:100C0000010F40F4800070474FF0000304E000BF84
:100C100010F0004348BF40425FEA000C08BF704735
:100C200043F0964301464FF000001CE050EA0102F9
:100C300008BF70474FF000030AE000BF50EA01020E
:100C400008BF704711F0004302D5404261EB4101FB
:100C50005FEA010C02BF84460146002043F0B64320
:100C600008BFA3F18053A3F50003BCFA8CF2083A45
:100C7000A3EBC25310DB01FA02FC634400FA02FC4E
:100C8000C2F12002BCF1004F20FA02F243EB020055
:100C900008BF20F00100704702F1200201FA02FCB7
:100CA000C2F1200250EA4C0021FA02F243EB0200AA
:100CB00008BF20EADC7070474FF0FF3C06E000BF41
:100CC0004FF0010C02E000BF4FF0010C4DF804CDD5
:100CD0004FEA40024FEA41037FEA226C18BF7FEAE5
:100CE000236C11D001B052EA530C18BF90EA010FE7
:100CF00058BFB2EB030088BFC81738BF6FEAE17076
:100D000018BF40F0010070477FEA226C02D15FEA11
:100D1000402C05D17FEA236CE4D15FEA412CE1D07D
:100D20005DF8040B704700BF844608466146FFE744
:100D30000FB5FFF7C9FF002848BF10F1000F0FBD26
:100D40004DF808EDFFF7F4FF0CBF012000205DF81F
:100D500008FB00BF4DF808EDFFF7EAFF34BF0120A4
:100D600000205DF808FB00BF4DF808EDFFF7E0FF3D
:100D700094BF012000205DF808FB00BF4DF808ED8E
:100D8000FFF7D2FF94BF012000205DF808FB00BFF1
:100D90004DF808EDFFF7C8FF34BF012000205DF8D3
:100DA00008FB00BF4FEA4002B2F1FE4F0FD34FF0F5
:100DB0009E03B3EB12620DD94FEA002343F00043C8
:100DC00010F0004F23FA02F018BF404270474FF076
:100DD0000000704712F1610F01D1420205D110F0FD
:100DE000004008BF6FF0004070474FF000007047B0
:100DF00080B582B000AF0346FB71FB79002B01D0B8
:100E0000012200E00022094B1A70084B1B78002BCE
:100E100014BF01230023DBB21A461021044802F05C
:100E2000C0FC00BF0837BD4680BD00BF8402002063
:100E30000008014080B582B000AF0346FB71124B41
:100E40001B78002B05D000220821104802F0A9FCD5
:100E500017E0FB79002B09D00D4B1B78002B05D137
:100E600001220821094802F09CFC04E0002208212C
:100E7000064802F096FCFB79002B02D1044B0022BD
:100E80001A700837BD4680BD770200200008014077
:100E90008D02002080B483B000AF0346FB80084B76
:100EA0001B6800225A6200BF054B1B685A6AFB8808
:100EB0009A42F9D300BF00BF0C37BD4680BC7047D3
:100EC000F003002080B584B000AF3B4600221A60DA
:100ED0005A609A60DA6004233B6011237B6002232E
:100EE000FB603B461946034802F0C0FA00BF1037CA
:100EF000BD4680BD0008014080B584B000AF3B46D0
:100F000000221A605A609A60DA6004233B60002372
:100F10007B600023BB603B461946034802F0A6FAFB
:100F200000BF1037BD4680BD0008014080B586B0C7
:100F300000AF786039600023BB6000233B73FFF78C
:100F4000C1FF00220421494802F02BFC142001F0CB
:100F50002DFD01220421454802F023FC1E20FFF74D
:100F600099FFFFF7C9FF0421404802F003FC034644
:100F7000002B01D0012375E000BF04213B4802F0A3
:100F8000F9FB0346002BF8D000BF0421374802F0DC
:100F9000F1FB0346002BF8D100BF0421334802F0D7
:100FA000E9FB0346002BF8D000237B613BE00023E4
:100FB0003B6132E000BF04212C4802F0DBFB03461A
:100FC000002BF8D02820FFF765FF0421274802F006
:100FD000D1FB0346002B15D007F108027B691344AF
:100FE0001B785AB23B69C3F10703012101FA03F3ED
:100FF0005BB213435BB2D9B207F108027B691344B9
:101000000A461A7000BF0421184802F0B3FB0346D9
:10101000002BF8D13B6901333B613B69072BC9DDEC
:101020007B6901337B617B69042BC0DD3B7A1A4607
:101030007B7A1344BA7A1344FA7A13443A7B934284
:1010400001D001230EE03B7A1846FFF7DDFD024692
:101050003B681A60BB7A1846FFF7D6FD02467B68EC
:101060001A60002318461837BD4680BD00080140AD
:1010700090B58BB004AF03460A46FB711346BB71B3
:101080004C4B1B681846FFF78DFE04464A4B1B6805
:101090001846FFF787FE0346484A12781146484A29
:1010A00012780292019100932346464A1121464844
:1010B00004F020FF454B1B78002B23D01122002188
:1010C000434804F0AFFA434A1121414804F012FFAB
:1010D0000023FB7507E0FB7D05333D4A2A21D154EF
:1010E000FB7D0133FB75394B1B78FA7D9A4202D2A6
:1010F000FB7D032BEFD9354B1B780533344A002198
:10110000D1541FE0FB79002B01D0334B00E0334B6F
:101110003B61BB79002B01D0314B00E0314BFB60D0
:10112000314B1B78012B01D1304B00E0304BBB60C1
:10113000BB680193FB6800933B692E4A1121244848
:1011400004F0D8FE20492C48FFF702F80346002B94
:1011500012D00021002000F0E0FA284800F0C8FA80
:101160000021002000F0D9FA174800F0C1FA11223E
:101170001549214804F0F2FE15492148FEF7E8FF21
:101180000346002B12D00021012000F0C6FA1B48B4
:1011900000F0AEFA0021012000F0BFFA0C4800F088
:1011A000A7FA11220A49164804F0D8FE00BF1C37DE
:1011B000BD4690BD780200207C0200208402002001
:1011C00096020020D08300083402002095020020FF
:1011D00048020020E8830008F0830008F483000838
:1011E000FC830008048400087402002008840008BE
:1011F00010840008148400080C02002020840008D9
:101200002002002080B584B000AF0023FB6065E0C1
:101210000023BB600BE0354ABB6832F81330012273
:101220001946334802F0BDFABB680133BB60BB68A6
:10123000032BF0DD2D4AFB6832F8133000221946EB
:101240002B4802F0AEFA00237B6038E0294A7B6825
:1012500032F813301946264802F08CFA0346002B68
:101260002AD1142001F0A2FB224A7B6832F8133005
:1012700019461F4802F07EFA0346002B1CD100BF1E
:101280001C4A7B6832F813301946194802F072FA8A
:101290000346002BF4D0154AFB6832F813300122C4
:1012A0001946134802F07DFA134AFB689B001A4462
:1012B0007B6813441B7815E07B6801337B607B6897
:1012C000032BC3DD094AFB6832F8133001221946AB
:1012D000074802F066FAFB680133FB60FB68032BEA
:1012E00096DD002318461037BD4680BD0000002063
:1012F000000C0140080000202C8A000880B582B054
:1013000000AF7860396000F021FA0021002000F081
:1013100004FA786800F0ECF93B68002B06D0002155
:10132000012000F0FAF9386800F0E2F940F2DC50F0
:1013300001F03CFB044B00221A70044B00221A708F
:1013400000BF0837BD4680BD0C02002020020020EF
:1013500080B582B000AFFFF755FF0346FB71FB7904
:10136000002B00F0FA80962001F020FB7D4B1B78CB
:10137000002B04D000217C48FFF7C0FFEEE0FB7992
:10138000412B10D1794B1B78002B04D17849794837
:10139000FFF7B4FFE2E0784B00221A7077497848F3
:1013A000FFF7ACFFDAE0FB79422B19D16F4B1B78CA
:1013B000002B04D16E496F48FFF7A0FFCEE0714BC0
:1013C0001B78002B04D070497048FFF797FFC5E0E9
:1013D000694B01221A706E496948FFF78FFFBDE023
:1013E000FB79432B13D1614B1B78002B04D160494F
:1013F0006048FFF783FFB1E0664B01221A700120BD
:10140000FFF7F6FC00216448FFF778FFA6E0FB79C0
:10141000442B13D1554B1B78002B04D1544955480C
:10142000FFF76CFF9AE05B4B01221A700020FFF778
:10143000DFFC00215948FFF761FF8FE0FB792F2B7C
:1014400018D9FB79392B15D8554B1B78032B00F293
:101450008580534B1B785A1CD1B2514A11701946E2
:10146000504AFB7953544E4B1B781A464D4B002182
:10147000995473E0FB792A2B08D1494B00221A704A
:1014800005220021474804F0CDF867E0FB79232BC3
:1014900064D145494348FEF75BFE0346002B10D15B
:1014A000384B1B78002B04D040493848FFF726FF03
:1014B0004AE02E4B01221A703D493148FFF71EFFCA
:1014C00042E03C493748FEF743FE0346002B13D168
:1014D000264B00221A702F4B00221A70294B1B78C2
:1014E000354A1178354A1268184600F039F93449FE
:1014F0003448FFF703FF27E033492A48FEF728FE68
:101500000346002B0AD1314B00221A70304B0122C6
:101510001A7000212F48FFF7F1FE15E02B4B1B78C6
:101520000133DAB2294B1A7000212B48FFF7E6FE8F
:10153000264B1B78042B07D90A4B01221A70002274
:101540000821264802F02DF9154B00221A700522B9
:101550000021144804F066F800E000BF0837BD46DB
:1015600080BD00BF7702002034840008760200208E
:101570004084000850840008750200206084000840
:1015800070840008820200207C8400088C8400089B
:101590009884000885020020A8840008B48400080C
:1015A0009502002090020020C0840008C484000836
:1015B000D8840008E4840008830200207C02002014
:1015C000E8840008F88400080485000896020020DA
:1015D0008D0200200C8500081885000800080140D5
:1015E00080B586B002AF0346FB71FB7943F00C0374
:1015F000DBB23B73FB7943F00803DBB27B7307F18B
:101600000C026423009302234E21034802F026FAC1
:1016100000BF1037BD4680BD2403002080B584B0D4
:1016200000AF0346FB71FB7923F00F03FB73FB79DB
:101630001B01BB73FB7B1846FFF7D2FFBB7B184631
:10164000FFF7CEFF022001F0B1F900BF1037BD4611
:1016500080BD80B584B000AF0346FB71FB7923F0F9
:101660000F03FB73FB791B01BB73FB7B43F001038F
:10167000DBB21846FFF7B4FFBB7B43F00103DBB2DC
:101680001846FFF7ADFF022001F090F900BF1037B8
:10169000BD4680BD80B500AF322001F087F9302013
:1016A000FFF79EFF052001F081F93020FFF798FF3A
:1016B000012001F07BF93020FFF792FF0A2001F0B2
:1016C00075F92020FFF78CFF2820FFF7A7FF0820DF
:1016D000FFF7A4FF0120FFF7A1FF022001F066F948
:1016E0000620FFF79BFF0C20FFF798FF00BF80BD8F
:1016F00080B582B000AF786006E07B685A1C7A60E3
:101700001B781846FFF7A5FF7B681B78002BF4D1E8
:1017100000BF00BF0837BD4680BD80B584B000AFB4
:10172000786039607B68002B04D13B68DBB2803B7A
:10173000FB7303E03B68DBB2403BFB73FB7B18466B
:10174000FFF76CFF00BF1037BD4680BD80B500AF0E
:101750000120FFF763FF022001F028F900BF80BDE0
:1017600080B584B000AF03463A60FB710B46BB7195
:10177000FB79002B03D0164B00221A7025E0154B85
:101780001B78002B20D14FF000013868FFF700FBD9
:101790000346002B08D010493868FFF7F9FA0346D2
:1017A000002B01D0012300E00023FB73FB7B002B07
:1017B00002D1BB79002B03D1054B00221A7004E043
:1017C000034B01221A7000E000BF1037BD4680BDF8
:1017D00075020020760200200000A04280B582B091
:1017E00000AF0346FB71FB79002B11D01E4B00228A
:1017F0001A701E4B1B78002B2ED11D4B1B78002B13
:101800002AD11C4B00221A700120FFF7F1FA23E0C5
:10181000194B1B78002B0BD0154B1B78002B07D0D6
:10182000114B01221A7001F0B7F80346134A1360F6
:101830000D4B1B78002B0FD001F0AEF802460F4B7A
:101840001B68D31A42F21072934205D90020FFF7A9
:10185000CFFA054B00221A70074AFB79137000BFBC
:101860000837BD4680BD00BF590200207402002029
:1018700084020020850200208C02002088020020C3
:1018800080B582B000AF01F02FF800F0B1F800F0A1
:10189000EDF900F047F900F073F900F005F900F0F8
:1018A000BBF9484803F0FCF9FFF7F4FEFFF74EFFE1
:1018B00000210020FFF731FF4348FFF719FF002107
:1018C0000120FFF72AFF4148FFF712FF4FF47A701B
:1018D00001F06CF8FFF73AFF00F0ACFFFFF738FDBE
:1018E00000F066FB0346FB7100F000FBFB79002B68
:1018F00008D000F05DFB0346002B03D1344B1A786F
:10190000344B1A7000F054FB0346002B13D1314BBB
:101910001A782F4B1B789A420DD02D4B1B78002B39
:1019200001D1012301E04FF0FF333B6039684FF4F0
:10193000805000F0BDFA01F02FF80246264B1B68DC
:10194000D31AB3F57A7FC9D901F026F80346224AA3
:1019500013602249224800F04FFA00F02FFA0346A4
:101960001A46204B1A801F4B1B88B3F5FA6F01D221
:10197000012200E000221C4B1A7000F0F7F9034628
:101980001A461A4B1A70194B1B78174A1178134ACA
:1019900012681846FFF7E4FE144B1B781846FFF751
:1019A0001DFF124B1B781846FFF744FA0F4B1B78AC
:1019B0000D4A127811461846FFF75AFB00F068FFEF
:1019C0008CE700BFF0030020248500083485000860
:1019D0007502002074020020980200207C02002082
:1019E0007802002080020020830200208202002072
:1019F00080B594B000AF07F12803282200211846D3
:101A000003F010FE07F1140300221A605A609A6076
:101A1000DA601A613B1D00221A605A609A60DA602F
:101A20000123BB624FF48033FB6200233B6301233D
:101A3000BB6302237B644FF48033BB644FF4C01359
:101A4000FB6407F12803184602F060FB0346002BF5
:101A500001D000F085F90F237B610223BB610023D5
:101A6000FB614FF480633B6200237B6207F1140348
:101A70000221184602F0CAFD0346002B01D000F0F7
:101A80006FF902237B604FF40043FB603B1D184657
:101A900002F04AFF0346002B01D000F061F900BFBD
:101AA0005037BD4680BD000080B584B000AF3B1DFF
:101AB00000221A605A609A60184B194A1A60174B34
:101AC00000229A60154B00221A73144B00221A75DB
:101AD000124B4FF46022DA61104B00225A600F4B18
:101AE00001221A610D4800F085FF0346002B01D04A
:101AF00000F036F900237B600123BB600623FB6006
:101B00003B1D1946054801F039FA0346002B01D068
:101B100000F026F900BF1037BD4680BD78030020D5
:101B20000024014080B500AF124B134A1A60114BDC
:101B3000124A5A600F4B00229A600E4B0022DA6064
:101B40000C4B4FF480421A610A4B00225A61094B38
:101B500000229A61074B0022DA61064B00221A62CA
:101B6000044801F037FE0346002B01D000F0F8F8DE
:101B700000BF80BD2403002000540040A086010067
:101B800080B586B000AF07F1080300221A605A60E2
:101B90009A60DA603B4600221A605A601D4B4FF093
:101BA00080421A601B4B47225A601A4B00229A60EF
:101BB000184B4FF6FF72DA60164B00221A61154B74
:101BC00000229A61134803F01BF80346002B01D052
:101BD00000F0C6F84FF48053BB6007F108031946C4
:101BE0000C4803F0A7F80346002B01D000F0B8F82A
:101BF00000233B6000237B603B461946054803F009
:101C000065FA0346002B01D000F0AAF800BF183790
:101C1000BD4680BDF003002080B500AF114B124AD5
:101C20001A60104B4FF4E1325A600E4B00229A605A
:101C30000C4B0022DA600B4B00221A61094B0C227C
:101C40005A61084B00229A61064B0022DA6105486E
:101C500003F09AFA0346002B01D000F081F800BF90
:101C600080BD00BFA80300200038014080B588B0C7
:101C700000AF07F1100300221A605A609A60DA6020
:101C8000344B9B69334A43F020039361314B9B698A
:101C900003F02003FB60FB682E4B9B692D4A43F049
:101CA000040393612B4B9B6903F00403BB60BB6887
:101CB000284B9B69274A43F008039361254B9B6996
:101CC00003F008037B607B680022FC21224801F0BE
:101CD00068FD002240F60351204801F062FD022316
:101CE0003B6100237B610123BB6107F110031946AF
:101CF000194801F0BBFBFC233B6101237B610023FE
:101D0000BB610223FB6107F110031946124801F081
:101D1000ADFB40F603533B6101237B610023BB61B4
:101D20000223FB6107F1100319460C4801F09EFBEA
:101D30004FF470433B6100237B610123BB6107F1DA
:101D400010031946054801F091FB00BF2037BD463E
:101D500080BD00BF0010024000080140000C01409F
:101D600080B400AF72B600BFFEE7000080B582B05D
:101D700000AF00237B6000233B600FE002210E4890
:101D800001F0F8FC0346002B02D17B6801337B6035
:101D9000052000F00BFE3B6801333B603B68042BE1
:101DA000ECDD7B68022B01DD012300E000231846F7
:101DB0000837BD4680BD00BF0008014080B582B035
:101DC00000AF0023FB800B4800F0ECFE64210948C3
:101DD00000F0C2FF0346002B04D1064801F0C2F810
:101DE0000346FB80034800F08BFFFB88184608374A
:101DF000BD4680BD7803002080B582B000AF78601A
:101E0000396039687868FFF791F80346002B07D0EE
:101E10007B684FF000021A603B684FF000021A60C6
:101E200000BF0837BD4680BD90B583B000AF044603
:101E3000084611461A462346FB710346BB710B4602
:101E40007B7113463B71FB79002B14BF01230023E8
:101E5000DBB21A462021144801F0A3FCBB79002B09
:101E600014BF01230023DBB21A4640210E4801F0C3
:101E700098FC7B79002B14BF01230023DBB21A46A8
:101E80008021094801F08DFC3B79002B14BF012310
:101E90000023DBB21A464FF48071044801F081FC44
:101EA00000BF0C37BD4690BD00080140000C01404A
:101EB00080B483B000AF78603960084A7B681360F3
:101EC000074B00221A60074A3B681360064B012249
:101ED0001A7000BF0C37BD4680BC704764020020FA
:101EE00060020020100000206C02002098B500AFB6
:101EF000284B1B78002B4BD0274B1A68274B1B68AD
:101F00009A4205DB00F05EF8224B00221A7040E096
:101F100000F042FD0246224B1B689A4239D000F085
:101F20003BFD03461E4A13601E4B1B681E4A12F8F7
:101F300023001C4B1B681C4A9B0013445978194B07
:101F40001B68194A9B0013449A78164B1B68164C61
:101F50009B002344DB78FFF767FF124B1A68134B93
:101F60001B6813440F4A13600E4B1B68072B02DDDE
:101F70000C4B00221A600B4B1B68002B02DA094B3A
:101F800007221A60044B1B680133034A136000E008
:101F900000BF98BD6C020020600200206402002097
:101FA000680200205C0200203C8A0008100000202B
:101FB00080B400AF024B1B781846BD4680BC70470A
:101FC0006C02002080B500AF002300220021002019
:101FD000FFF72AFF00BF80BD80B485B000AF154B6E
:101FE0009B69144A43F001039361124B9B6903F010
:101FF0000103BB60BB680F4BDB690E4A43F08053A3
:10200000D3610C4BDB6903F080537B607B680A4B28
:102010005B68FB60FB6823F0E063FB60FB6843F0F8
:102020000073FB60044AFB68536000BF1437BD4671
:1020300080BC7047001002400000014080B588B0AD
:1020400000AF786007F1100300221A605A609A60AE
:10205000DA607B681B68144A934221D1134B9B6959
:10206000124A43F400739361104B9B6903F40073AD
:10207000FB60FB680D4B9B690C4A43F004039361C2
:102080000A4B9B6903F00403BB60BB6801233B61FF
:1020900003237B6107F110031946054801F0E6F9B7
:1020A00000BF2037BD4680BD002401400010024023
:1020B0000008014080B588B000AF786007F11003D8
:1020C00000221A605A609A60DA607B681B68154AC1
:1020D000934223D1144B9B69134A43F00803936145
:1020E000114B9B6903F00803FB60FB68C0233B6155
:1020F00012237B610323FB6107F1100319460B4890
:1021000001F0B4F9084BDB69074A43F40013D361CB
:10211000054BDB6903F40013BB60BB6800BF2037CD
:10212000BD4680BD0054004000100240000C01403C
:1021300080B485B000AF78607B681B68B3F1804FD6
:102140000BD1084BDB69074A43F00103D361054B10
:10215000DB6903F00103FB60FB6800BF1437BD4679
:1021600080BC70470010024080B588B000AF786036
:1021700007F1100300221A605A609A60DA607B68E7
:102180001B681C4A934231D11B4B9B691A4A43F48A
:1021900080439361184B9B6903F48043FB60FB68A9
:1021A000154B9B69144A43F004039361124B9B69DE
:1021B00003F00403BB60BB684FF400733B61022370
:1021C0007B610323FB6107F1100319460B4801F003
:1021D0004DF94FF480633B6100237B610023BB61B9
:1021E00007F110031946054801F040F900BF2037F8
:1021F000BD4680BD0038014000100240000801408B
:1022000080B400AFFEE780B400AFFEE780B400AF5B
:10221000FEE780B400AFFEE780B400AFFEE780B415
:1022200000AF00BFBD4680BC704780B400AF00BFA8
:10223000BD4680BC704780B400AF00BFBD4680BCC7
:10224000704780B500AF00F095FB00BF80BD80B443
:1022500000AF01231846BD4680BC704780B582B0F0
:1022600000AF7860396003F0B3F9034616221A60B4
:102270004FF0FF3318460837BD4680BD80B582B0A9
:1022800000AF78604FF0FF317868FFF7E7FFFEE7B7
:1022900080B586B000AFF860B9607A6000237B61DA
:1022A0000AE0AFF300800146BB685A1CBA60CAB2AC
:1022B0001A707B6901337B617A697B689A42F0DB33
:1022C0007B6818461837BD4680BD80B586B000AF24
:1022D000F860B9607A6000237B6109E0BB685A1C32
:1022E000BA601B781846AFF300807B6901337B61CD
:1022F0007A697B689A42F1DB7B6818461837BD46DD
:1023000080BD80B483B000AF78604FF0FF331846D3
:102310000C37BD4680BC704780B483B000AF786096
:1023200039603B684FF400525A60002318460C375E
:10233000BD4680BC704780B483B000AF7860012395
:1023400018460C37BD4680BC704780B485B000AFDE
:10235000F860B9607A60002318461437BD4680BC27
:102360007047000080B586B000AF7860144A154B06
:10237000D31A7B617B693B61134B1B68002B02D135
:10238000114B124A1A60104B1A687B6813443A6961
:102390009A4207D203F01CF903460C221A604FF050
:1023A000FF3309E0084B1B68FB60074B1A687B682A
:1023B0001344054A1360FB6818461837BD4680BDB4
:1023C0000050002000040000700200205004002093
:1023D00080B400AF00BFBD4680BC704780B582B0FE
:1023E00000AF78607868FDF7BDFE03469AB2C82357
:1023F0007968034802F018FF00BF0837BD4680BD6A
:10240000A803002080B582B000AF78607868FFF73D
:10241000E5FF0348FFF7E2FF00BF0837BD4680BD78
:102420004485000880B584B002AF03460A46FB71BC
:102430001346BB71FA79BB7900931346054A2021F4
:10244000054803F057FD0448FFF7C8FF00BF0837F1
:10245000BD4680BD488500089C02002080B582B042
:1024600000AF0346FB71FB7910211846FFF7DAFF36
:102470000648FFF7B3FF0648FFF7B0FF0548FFF730
:10248000ADFF00BF0837BD4680BD00BFBC020020C5
:10249000548500085885000880B500AF1A48FFF73A
:1024A0009DFF1A48FFF7AEFF1948FFF7ABFF194829
:1024B000FFF7A8FF1848FFF7A5FF1848FFF7A2FF8E
:1024C0001748FFF79FFF1748FFF79CFF1648FFF7D5
:1024D00099FF1648FFF796FF1548FFF793FF154839
:1024E000FFF790FF1448FFF78DFF1448FFF78AFFAE
:1024F0001348FFF787FF1348FFF784FF0348FFF7F0
:1025000081FF00BF80BD00BF6085000870850008A6
:10251000A4850008DC8500081086000844860008B1
:1025200078860008AC860008E0860008148700085A
:10253000488700087C870008B0870008E487000807
:10254000188800084C88000880B586B002AF8C4B14
:102550001B681846FDF772FF02460B46CDE90023C3
:10256000884A6021884803F0C5FC0420FFF776FF05
:10257000864B1B681846FDF761FF02460B46CDE906
:102580000023834A6021804803F0B4FC0520FFF754
:1025900065FF804B1B78002B01D07F4A00E07F4A0B
:1025A0007C4B1B78002B01D07D4B00E07D4B7E499E
:1025B00009880191009313467C4A6021724803F018
:1025C00099FC0620FFF74AFF794B1B78002B01D0BE
:1025D000784A00E0784A764B1B78002B01D0774B85
:1025E00000E0774B00931346764A6021664803F07B
:1025F00081FC0720FFF732FF734B1B78002B01D0C3
:10260000654A00E06C4A704B1B78002B01D06F4B81
:1026100000E06F4B009313466A4A60215A4803F06A
:1026200069FC0920FFF71AFF6A4B1A786A4B1B787E
:102630009A4214BF01230023DBB2FB72FB7A002B0A
:1026400001D0554B00E05C4B7B60FB7A002B08D13E
:10265000604B1B78012B01D1604B00E0604BFB60AD
:1026600007E05D4B1B78012B01D15E4B00E05E4B18
:10267000FB60FB6800937B68524A6021424803F08C
:1026800039FC0A20FFF7EAFE584B1B78002B01D0DB
:10269000494900E04149554B1B78002B01D0544B70
:1026A00000E0544B544A1278002A01D0534A00E00B
:1026B000534A019200930B46524A6021324803F07C
:1026C00019FC0B20FFF7CAFE4F4B1B78002B01D0E3
:1026D000384A00E0384A4C4B1B78002B01D04B4B5A
:1026E00000E04B4B00931346364A6021264803F026
:1026F00001FC0C20FFF7B2FE464B1B781A4605235F
:1027000000931346444A60211F4803F0F3FB0D2059
:10271000FFF7A4FE03210F20FFF784FE244B1B7854
:10272000002B16D000F038F903463C4AA2FB0323E5
:102730009B093B603B6803F00103002B01D0384B41
:1027400000E01C4B1846FFF749FE3648FFF746FEEF
:102750000AE02D4B1B78002B03D03348FFF73EFED9
:1027600002E03248FFF73AFE3148FFF737FE012119
:102770001120FFF757FE00BF1037BD4680BD00BFD8
:102780007802002080880008BC0200207C02002023
:102790009488000883020020A8880008B0880008F8
:1027A000B8880008C088000880020020C48800089B
:1027B00082020020DC880008E4880008EC88000819
:1027C000F888000804890008760200200C890008B7
:1027D0001489000874020020750200201C8900087A
:1027E00028890008348900084089000884020020F4
:1027F0004C8900085089000885020020548900088F
:102800005C89000864890008770200207889000844
:10281000848900089602002090890008D34D621038
:10282000A4890008B0890008D4890008FC89000840
:10283000248A000880B500AF134B144A1A60124B6B
:102840004FF4E1325A60104B00229A600E4B002286
:10285000DA600D4B00221A610B4B08225A610A4BB9
:1028600000229A61084B0022DA61074802F08CFCD2
:102870000346002B01D0FFF773FAFFF70DFEFFF7B9
:1028800063FE00BF80BD00BFA803002000380140E8
:1028900080B500AFFFF758FE00BF80BDFFF798FD81
:1028A0000B480C490C4A002302E0D458C4500433AE
:1028B000C4188C42F9D3094A094C002301E0136083
:1028C0000432A242FBD302F089FEFEF7D9FF704723
:1028D00000000020F0010020848E0008F00100209C
:1028E0004C040020FEE7000080B500AF084B1B68D9
:1028F000074A43F010031360032000F083FD0F200C
:1029000000F008F8FFF768FB0023184680BD00BF01
:102910000020024080B582B000AF7860124B1A6888
:10292000124B1B7819464FF47A73B3FBF1F3B2FBE9
:10293000F3F3184600F08DFD0346002B01D0012370
:102940000EE07B680F2B0AD8002279684FF0FF3029
:1029500000F063FD064A7B681360002300E001235A
:1029600018460837BD4680BD140000201C0000201A
:102970001800002080B400AF054B1B781A46054BA9
:102980001B681344034A136000BFBD4680BC7047F8
:102990001C0000203804002080B400AF024B1B68EC
:1029A0001846BD4680BC70473804002080B584B00E
:1029B00000AF7860FFF7F0FFB8607B68FB60FB68F2
:1029C000B3F1FF3F05D00A4B1B781A46FB6813444E
:1029D000FB6000BFFFF7E0FF0246BB68D31AFA684E
:1029E0009A42F7D800BF00BF1037BD4680BD00BF78
:1029F0001C00002080B586B000AF78600023FB7516
:102A000000233B610023BB600023FB607B68002B3D
:102A100001D10123BEE07B689B68002B7B689B6A29
:102A2000002B09D17B680022DA627B68002283F8E0
:102A300024207868FFF702FB786800F0F1FB03467A
:102A4000FB757B689B6A03F01003002B40F09980B4
:102A5000FB7D002B40F095807B689B6A23F48853B4
:102A600023F0020343F002027B689A627B685A6893
:102A70007B68DB691A437B681B7B5B001343BA6886
:102A80001343BB607B689B68B3F5807F03D07B6892
:102A90009B68012B02D14FF4807300E000233A6958
:102AA00013433B617B681B7D012B19D17B681B7B2A
:102AB000002B09D17B689B69013B5A033B69134397
:102AC00043F400633B610BE07B689B6A43F02002A8
:102AD0007B689A627B68DB6A43F001027B68DA629A
:102AE0007B681B685B6823F469417B681B683A69F3
:102AF0000A435A607B681B689A68284B13407A68BF
:102B00001268B9680B4393607B689B68B3F5807F5C
:102B100003D07B689B68012B04D17B681B69013B58
:102B20001B05FB607B681B68DB6A23F470017B6814
:102B30001B68FA680A43DA627B681B689A68184B5C
:102B40001340BA689A420BD17B680022DA627B6834
:102B50009B6A23F0030343F001027B689A6218E04A
:102B60007B689B6A23F0120343F010027B689A6231
:102B70007B68DB6A43F001027B68DA620123FB7544
:102B800007E07B689B6A43F010027B689A6201232E
:102B9000FB75FB7D18461837BD4680BDFDF7E1FF8C
:102BA000FE0E1FFF80B584B000AF78600023FB737A
:102BB0007B6893F82430012B01D1022398E07B68D5
:102BC000012283F82420786800F0D0FA0346FB73D2
:102BD000FB7B002B40F087807B689B6A23F440736B
:102BE00023F0010343F480727B689A627B681B6860
:102BF000414A934205D1414B5B6803F47023002B9B
:102C000015D17B689B6A23F480127B689A627B688B
:102C10001B685B6803F48063002B26D07B689B6A8B
:102C200023F4405343F480527B689A621DE07B6832
:102C30009B6A43F480127B689A627B681B682F4A08
:102C4000934204D07B681B682B4A93420DD12B4BD7
:102C50005B6803F48063002B07D07B689B6A23F4D6
:102C6000405343F480527B689A627B689B6A03F40A
:102C70008053002B06D07B68DB6A23F006027B685A
:102C8000DA6202E07B680022DA627B68002283F865
:102C900024207B681B686FF002021A607B681B6847
:102CA0009B6803F46023B3F5602F13D17B681B6826
:102CB000114A934205D1114B5B6803F47023002B3A
:102CC00008D17B681B689A687B681B6842F4A00285
:102CD0009A600CE07B681B689A687B681B6842F40A
:102CE00080129A6003E07B68002283F82420FB7B3B
:102CF00018461037BD4680BD002801400024014021
:102D000080B584B000AF78600023FB737B6893F8D4
:102D10002430012B01D102231AE07B68012283F8C1
:102D20002420786800F07CFA0346FB73FB7B002BC1
:102D300009D17B689B6A23F4885323F0010343F095
:102D400001027B689A627B68002283F82420FB7B67
:102D500018461037BD4680BD90B587B000AF78608B
:102D6000396000237B610023FB6000233B61FFF798
:102D700013FE78617B681B689B6803F48073002BEB
:102D80000BD07B689B6A43F020027B689A627B6869
:102D9000002283F824200123D3E07B681B685B6852
:102DA00003F48073002B31D17B681B68DB6A03F46A
:102DB0007003002B2AD121E03B68B3F1FF3F1DD007
:102DC0003B68002B07D0FFF7E7FD02467B69D31A6B
:102DD0003A689A4212D27B681B681B6803F00203B0
:102DE000002B0BD17B689B6A43F004027B689A62DC
:102DF0007B68002283F824200323A2E07B681B6801
:102E00001B6803F00203002BD6D070E04F4B1C6808
:102E1000022001F03FFE0346B4FBF3F27B681B681F
:102E200019694B4B0B40002B18D17B681B68D96884
:102E3000484B0B40002B11D17B681B681969464B2E
:102E40000B40002B08D17B681B68D968434B0B40B3
:102E5000002B01D1142320E029231EE07B681B688E
:102E600019693D4B0B40002B06D17B681B68D96864
:102E70003A4B0B40002B0DD07B681B681969384B0F
:102E80000B40002B08D17B681B68D968344B0B4082
:102E9000002B01D1542300E0FC2302FB03F33B6130
:102EA00021E03B68B3F1FF3F1AD03B68002B07D00D
:102EB000FFF772FD02467B69D31A3A689A420FD235
:102EC000FB683A699A420BD97B689B6A43F004021B
:102ED0007B689A627B68002283F82420032330E019
:102EE000FB680133FB60FB683A699A42D9D87B687A
:102EF0001B686FF012021A607B689B6A43F40072D1
:102F00007B689A627B681B689B6803F46023B3F557
:102F1000602F15D17B681B7B002B11D17B689B6ACE
:102F200023F480727B689A627B689B6A03F4805307
:102F3000002B05D17B689B6A43F001027B689A6293
:102F4000002318461C37BD4690BD00BF140000206A
:102F5000244992242449920092244912922449003F
:102F60004992240080B483B000AF78607B681B680E
:102F7000DB6C18460C37BD4680BC704780B485B00A
:102F800000AF786039600023FB730023BB607B686F
:102F900093F82430012B01D10223DCE07B6801226D
:102FA00083F824203B685B68062B1CD87B681B6871
:102FB000596B3B685A6813469B001344053B1F221C
:102FC00002FA03F3DB4319403B6818683B685A6810
:102FD00013469B001344053B00FA03F27B681B6811
:102FE0000A435A633CE03B685B680C2B1CD87B6847
:102FF0001B68196B3B685A6813469B001344233BBC
:103000001F2202FA03F3DB4319403B6818683B6850
:103010005A6813469B001344233B00FA03F27B6873
:103020001B680A431A631BE07B681B68D96A3B680C
:103030005A6813469B001344413B1F2202FA03F3D4
:10304000DB4319403B6818683B685A6813469B008D
:103050001344413B00FA03F27B681B680A43DA62BF
:103060003B681B68092B1CD97B681B68D9683B68C7
:103070001A6813465B0013441E3B072202FA03F34F
:10308000DB4319403B6898683B681A6813465B004D
:1030900013441E3B00FA03F27B681B680A43DA60A4
:1030A00019E07B681B6819693B681A6813465B0066
:1030B0001344072202FA03F3DB4319403B68986884
:1030C0003B681A6813465B00134400FA03F27B68FE
:1030D0001B680A431A613B681B68102B03D03B68CE
:1030E0001B68112B32D17B681B681D4A934225D186
:1030F0007B681B689B6803F40003002B26D17B6868
:103100001B689A687B681B6842F400029A603B68FF
:103110001B68102B1AD1134B1B68134AA2FB032305
:103120009A0C13469B0013445B00BB6002E0BB6833
:10313000013BBB60BB68002BF9D107E07B689B6A51
:1031400043F020027B689A620123FB737B680022B4
:1031500083F82420FB7B18461437BD4680BC70479B
:10316000002401401400002083DE1B4380B584B09E
:1031700000AF78600023FB600023BB607B681B68A6
:103180009B6803F00103012B40D07B681B689A68A1
:103190007B681B6842F001029A601F4B1B681F4A44
:1031A000A2FB03239B0CBB6002E0BB68013BBB603E
:1031B000BB68002BF9D1FFF7EFFBF8601FE0FFF7CA
:1031C000EBFB0246FB68D31A022B18D97B681B68FD
:1031D0009B6803F00103012B11D07B689B6A43F0CD
:1031E00010027B689A627B68DB6A43F001027B68AD
:1031F000DA627B68002283F82420012307E07B68E1
:103200001B689B6803F00103012BD8D100231846EB
:103210001037BD4680BD00BF1400002083DE1B4375
:1032200080B584B000AF78600023FB607B681B68CA
:103230009B6803F00103012B2ED17B681B689A6801
:103240007B681B6822F001029A60FFF7A5FBF8601B
:103250001BE0FFF7A1FB0246FB68D31A022B14D92F
:103260007B681B689B6803F00103012B0DD17B6811
:103270009B6A43F010027B689A627B68DB6A43F0CA
:1032800001027B68DA62012307E07B681B689B68A8
:1032900003F00103012BDCD0002318461037BD4694
:1032A00080BD000080B485B000AF78607B6803F01B
:1032B0000703FB600C4BDB68BB60BA684FF6FF038B
:1032C0001340BB60FB681A02BB68134343F0BF6343
:1032D00043F40033BB60044ABB68D36000BF1437BB
:1032E000BD4680BC704700BF00ED00E080B400AF79
:1032F000044BDB681B0A03F007031846BD4680BC7D
:10330000704700BF00ED00E080B483B000AF03461B
:103310003960FB7197F90730002B0ADB3B68DAB2A2
:103320000C4997F907301201D2B20B4483F80023FD
:103330000AE03B68DAB20849FB7903F00F03043B6B
:103340001201D2B20B441A7600BF0C37BD4680BCC6
:10335000704700BF00E100E000ED00E080B489B0FC
:1033600000AFF860B9607A60FB6803F00703FB61A7
:10337000FB69C3F10703042B28BF0423BB61FB696E
:103380000433062B02D9FB69033B00E000237B6179
:103390004FF0FF32BB6902FA03F3DA43BB681A400D
:1033A0007B699A404FF0FF317B6901FA03F3D943FF
:1033B0007B680B40134318462437BD4680BC7047DA
:1033C00080B582B000AF78607B68013BB3F1807F4D
:1033D00001D301230FE00A4A7B68013B53600F21B0
:1033E0004FF0FF30FFF790FF054B00229A60044B2F
:1033F00007221A60002318460837BD4680BD00BF6B
:1034000010E000E080B582B000AF78607868FFF728
:1034100049FF00BF0837BD4680BD80B586B000AF0C
:103420000346B9607A60FB7300237B61FFF75EFFA0
:1034300078617A68B9687869FFF790FF024697F972
:103440000F3011461846FFF75FFF00BF1837BD4623
:1034500080BD80B582B000AF78607868FFF7B0FFBC
:10346000034618460837BD4680BD000080B48BB0C7
:1034700000AF7860396000237B6200233B6269E122
:1034800001227B6A02FA03F3FB613B681B68FA695D
:103490001340BB61BA69FB699A4240F058813B68AE
:1034A0005B689A4A93425ED0984A934275D8984A8C
:1034B000934258D0964A93426FD8964A934252D03C
:1034C000944A934269D8944A93424CD0924A934288
:1034D00063D8924A934246D0904A93425DD8122BC9
:1034E0002AD8122B59D801A252F823F067350008C8
:1034F0004135000853350008953500089B35000814
:103500009B3500089B3500089B3500089B3500085B
:103510009B3500089B3500089B3500089B3500084B
:103520009B3500089B3500089B3500089B3500083B
:10353000493500085D350008794A934213D02CE0E4
:103540003B68DB683B6229E03B68DB6804333B6235
:1035500024E03B68DB6808333B621FE03B68DB68C4
:103560000C333B621AE03B689B68002B02D10423BA
:103570003B6213E03B689B68012B05D108233B624B
:103580007B68FA691A6109E008233B627B68FA6983
:103590005A6103E000233B6200E000BFBB69FF2BE0
:1035A00001D87B6801E07B6804337B61BB69FF2B3A
:1035B00002D87B6A9B0002E07B6A083B9B003B6170
:1035C0007B691A680F213B6901FA03F3DB431A4058
:1035D000396A3B6901FA03F31A437B691A603B6855
:1035E0005B6803F08053002B00F0B1804D4B9B696A
:1035F0004C4A43F0010393614A4B9B6903F001037A
:10360000BB60BB68484A7B6A9B08023352F8233090
:10361000FB607B6A03F003039B000F2202FA03F3B3
:10362000DB43FA681340FB607B68404A934213D047
:103630007B683F4A93420DD07B683E4A934207D055
:103640007B683D4A934201D1032306E0042304E052
:10365000022302E0012300E000237A6A02F0030261
:1036600092009340FA681343FB602F497B6A9B08E2
:103670000233FA6841F823203B685B6803F4801347
:10368000002B06D02D4B9A682C49BB6913438B60E5
:1036900006E02A4B9A68BB69DB43284913408B60DC
:1036A0003B685B6803F40013002B06D0234BDA68F9
:1036B0002249BB691343CB6006E0204BDA68BB6943
:1036C000DB431E491340CB603B685B6803F4003367
:1036D000002B06D0194B5A681849BB6913434B603D
:1036E00006E0164B5A68BB69DB43144913404B6034
:1036F0003B685B6803F48033002B21D00F4B1A68C2
:103700000E49BB6913430B6021E000BF000032107B
:1037100000003110000022100000211000001210E3
:10372000000011100010024000000140000801409C
:10373000000C014000100140001401400004014051
:103740000B4B1A68BB69DB43094913400B607B6A6A
:1037500001337B623B681A687B6A22FA03F3002B11
:103760007FF48EAE00BF00BF2C37BD4680BC7047D3
:103770000004014080B485B000AF78600B467B80C8
:103780007B689A687B881340002B02D00123FB736F
:1037900001E00023FB73FB7B18461437BD4680BC59
:1037A000704780B483B000AF78600B467B801346CF
:1037B0007B707B78002B03D07A887B681A6103E0EA
:1037C0007B881A047B681A6100BF0C37BD4680BC39
:1037D0007047000080B584B000AF78607B68002B34
:1037E00001D101232BE17B6893F83D30DBB2002B44
:1037F00006D17B68002283F83C207868FEF75AFCEB
:103800007B68242283F83D207B681B681A687B68EC
:103810001B6822F001021A607B681B681A687B68CB
:103820001B6842F400421A607B681B681A687B6858
:103830001B6822F400421A6001F030F8F8607B68DF
:103840005B68814A934207D8FB68804A934294BFE1
:1038500001230023DBB206E0FB687D4A934294BF5C
:1038600001230023DBB2002B01D00123E7E0FB683A
:10387000784AA2FB03239B0CBB607B681B685B68D8
:1038800023F03F017B681B68BA680A435A607B6873
:103890001B681B6A23F03F017B685B686A4A93429E
:1038A00002D8BB68013309E0BB684FF4967202FB93
:1038B00003F3694AA2FB03239B0901337A68126868
:1038C0000B4313627B681B68DB6923F44F4222F0D1
:1038D000FF027B685B685C498B4219D8FB68591E04
:1038E0007B685B685B00B1FBF3F3591C40F6FC732B
:1038F0000B40002B0AD0FB68591E7B685B685B009D
:10390000B1FBF3F30133C3F30B0351E004234FE0A6
:103910007B689B68002B11D1FB68581E7B68596837
:103920000B465B000B44B0FBF3F30133C3F30B0313
:10393000002B0CBF01230023DBB212E0FB68581EF2
:103940007B6859680B469B000B4499000B44B0FB05
:10395000F3F30133C3F30B03002B0CBF012300234C
:10396000DBB2002B01D0012322E07B689B68002B97
:103970000ED1FB68581E7B6859680B465B000B44F0
:10398000B0FBF3F30133C3F30B0343F400430FE045
:10399000FB68581E7B6859680B469B000B449900D6
:1039A0000B44B0FBF3F30133C3F30B0343F4404385
:1039B000796809681343CB617B681B681B6823F037
:1039C000C0017B68DA697B681B6A1A437B681B68E5
:1039D0000A431A607B681B689B6823F4034323F047
:1039E000FF037A6811697A68D26811437A681268AD
:1039F0000B4393607B681B68DB6823F0FF017B68E7
:103A00005A697B689B691A437B681B680A43DA60C2
:103A10007B681B681A687B681B6842F001021A60A9
:103A20007B6800221A647B68202283F83D207B6833
:103A300000221A637B68002283F83E200023184688
:103A40001037BD4680BD00BFA08601007F841E00E8
:103A5000FF083D0083DE1B43D34D621080B588B064
:103A600002AFF8607A601A460B467B8113463B81B1
:103A7000FEF792FF7861FB6893F83D30DBB2202BB4
:103A800040F0E0807B690093192301227049F868B7
:103A900000F064F90346002B01D00223D3E0FB6859
:103AA00093F83C30012B01D10223CCE0FB680122CA
:103AB00083F83C20FB681B681B6803F00103012BA3
:103AC00007D0FB681B681A68FB681B6842F001029C
:103AD0001A60FB681B681A68FB681B6822F40062A6
:103AE0001A60FB68212283F83D20FB68102283F8CE
:103AF0003E20FB6800221A64FB687A685A62FB6801
:103B00003A895A85FB685B8D9AB2FB681A85FB6817
:103B1000504ADA6279897B693A6AF86800F09CF861
:103B20000346002B01D001238DE000233B61FB689D
:103B30001B685B693B61FB681B689B693B613B6978
:103B400066E07A69396AF86800F022FA0346002BC9
:103B50000DD0FB681B6C042B07D1FB681B681A682F
:103B6000FB681B6842F400721A6001236BE0FB687B
:103B70005B6A1A78FB681B681A61FB685B6A5A1CEF
:103B8000FB685A62FB685B8D9BB2013B9AB2FB6893
:103B90005A85FB681B8D013B9AB2FB681A85FB684E
:103BA0001B685B6903F00403042B1BD1FB681B8DAE
:103BB000002B17D0FB685B6A1A78FB681B681A61D8
:103BC000FB685B6A5A1CFB685A62FB685B8D9BB2A0
:103BD000013B9AB2FB685A85FB681B8D013B9AB288
:103BE000FB681A857A69396AF86800F019FA0346A1
:103BF000002B0DD0FB681B6C042B07D1FB681B68E6
:103C00001A68FB681B6842F400721A6001231AE00C
:103C1000FB681B8D002B94D1FB681B681A68FB683E
:103C20001B6842F400721A60FB68202283F83D2072
:103C3000FB68002283F83E20FB68002283F83C20CA
:103C4000002300E0022318461837BD4680BD00BFA0
:103C5000020010000000FFFF80B588B002AFF860DE
:103C60007A603B600B467B81FB68DB6A7B617B692A
:103C7000082B06D07B69012B03D07B6913F5803FAD
:103C800008D1FB681B681A68FB681B6842F48072E5
:103C90001A600BE0FB681B6B122B07D1FB681B68DB
:103CA0001A68FB681B6842F480721A603B680093D4
:103CB0007B6800224FF00111F86800F04FF80346CE
:103CC000002B0DD0FB681B681B6803F48073B3F5F1
:103CD000807F03D1FB684FF400721A64032335E040
:103CE000FB681B69B3F5804F08D17B89DBB21A46AC
:103CF000FB681B6802F0FE021A611BE07B89DB1186
:103D0000DBB203F00603DBB263F00F03DAB2FB6849
:103D10001B681A613B687A680E49F86800F098F8E9
:103D20000346002B01D0012310E07B89DAB2FB6847
:103D30001B681A613B687A680749F86800F088F8E0
:103D40000346002B01D0012300E00023184618375A
:103D5000BD4680BD080001000200010080B584B0AE
:103D600000AFF860B9603B601346FB7148E03B6808
:103D7000B3F1FF3F44D0FEF70FFE0246BB69D31AF2
:103D80003A689A4202D33B68002B39D1BB681B0CBE
:103D9000DBB2012B0DD1FB681B685B69DA43BB68A2
:103DA00013409BB2002B0CBF01230023DBB21A4649
:103DB0000CE0FB681B689B69DA43BB6813409BB24D
:103DC000002B0CBF01230023DBB21A46FB799A4279
:103DD00016D1FB6800221A63FB68202283F83D207D
:103DE000FB68002283F83E20FB681B6C43F0200236
:103DF000FB681A64FB68002283F83C20012323E05F
:103E0000BB681B0CDBB2012B0DD1FB681B685B6927
:103E1000DA43BB6813409BB2002B0CBF0123002385
:103E2000DBB21A460CE0FB681B689B69DA43BB688F
:103E300013409BB2002B0CBF01230023DBB21A46B8
:103E4000FB799A4293D0002318461037BD4680BDB7
:103E500080B584B000AFF860B9607A603B6071E013
:103E6000FB681B685B6903F48063B3F5806F23D143
:103E7000FB681B681A68FB681B6842F400721A60D2
:103E8000FB681B686FF480625A61FB6800221A634A
:103E9000FB68202283F83D20FB68002283F83E2047
:103EA000FB681B6C43F00402FB681A64FB68002289
:103EB00083F83C20012367E07B68B3F1FF3F41D0EA
:103EC000FEF76AFD02463B68D31A7A689A4202D32B
:103ED0007B68002B36D1BB681B0CDBB2012B0CD1ED
:103EE000FB681B685B69DA43BB6813409BB2002B1D
:103EF00014BF01230023DBB20BE0FB681B689B6946
:103F0000DA43BB6813409BB2002B14BF012300238C
:103F1000DBB2002B16D0FB6800221A63FB6820225C
:103F200083F83D20FB68002283F83E20FB681B6C71
:103F300043F02002FB681A64FB68002283F83C20EF
:103F4000012321E0BB681B0CDBB2012B0CD1FB6809
:103F50001B685B69DA43BB6813409BB2002B14BF3C
:103F600001230023DBB20BE0FB681B689B69DA438B
:103F7000BB6813409BB2002B14BF01230023DBB2AC
:103F8000002B7FF46DAF002318461037BD4680BD6F
:103F900080B584B000AFF860B9607A6034E0F8684A
:103FA00000F086F80346002B01D0012334E0BB6803
:103FB000B3F1FF3F28D0FEF7EFFC02467B68D31A2F
:103FC000BA689A4202D3BB68002B1DD1FB681B68FC
:103FD0005B6903F08003802B16D0FB6800221A6314
:103FE000FB68202283F83D20FB68002283F83E20F6
:103FF000FB681B6C43F02002FB681A64FB6800221C
:1040000083F83C20012307E0FB681B685B6903F031
:104010008003802BC3D1002318461037BD4680BDD6
:1040200080B584B000AFF860B9607A6034E0F868B9
:1040300000F03EF80346002B01D0012334E0BB68BA
:10404000B3F1FF3F28D0FEF7A7FC02467B68D31AE6
:10405000BA689A4202D3BB68002B1DD1FB681B686B
:104060005B6903F00403042B16D0FB6800221A637B
:10407000FB68202283F83D20FB68002283F83E2065
:10408000FB681B6C43F02002FB681A64FB6800228B
:1040900083F83C20012307E0FB681B685B6903F0A1
:1040A0000403042BC3D1002318461037BD4680BD3E
:1040B00080B483B000AF78607B681B685B6903F4F1
:1040C0008063B3F5806F1BD17B681B686FF48062DF
:1040D0005A617B6800221A637B68202283F83D20A6
:1040E0007B68002283F83E207B681B6C43F004024F
:1040F0007B681A647B68002283F83C20012300E07F
:10410000002318460C37BD4680BC704780B586B08A
:1041100000AF78607B68002B01D101236CE27B68E3
:104120001B6803F00103002B00F08780924B5B6853
:1041300003F00C03042B0CD08F4B5B6803F00C03D3
:10414000082B12D18C4B5B6803F48033B3F5803FAE
:104150000BD1894B1B6803F40033002B6CD07B68B8
:104160005B68002B68D1012346E27B685B68B3F58E
:10417000803F06D1804B1B687F4A43F48033136035
:104180002EE07B685B68002B0CD17B4B1B687A4A66
:1041900023F480331360784B1B68774A23F4802321
:1041A00013601DE07B685B68B3F5A02F0CD1724BE8
:1041B0001B68714A43F4802313606F4B1B686E4A7F
:1041C00043F4803313600BE06B4B1B686A4A23F4A3
:1041D00080331360684B1B68674A23F480231360A5
:1041E0007B685B68002B13D0FEF7D6FB386108E0D4
:1041F000FEF7D2FB02463B69D31A642B01D9032395
:10420000FAE15D4B1B6803F40033002BF0D014E09F
:10421000FEF7C2FB386108E0FEF7BEFB02463B69D1
:10422000D31A642B01D90323E6E1534B1B6803F433
:104230000033002BF0D100E000BF7B681B6803F067
:104240000203002B63D04C4B5B6803F00C03002B84
:104250000BD0494B5B6803F00C03082B1CD1464B79
:104260005B6803F48033002B16D1434B1B6803F0CB
:104270000203002B05D07B681B69012B01D00123B1
:10428000BAE13D4B1B6823F0F8027B685B69DB00F9
:10429000394913430B603AE07B681B69002B20D03F
:1042A000364B01221A60FEF777FB386108E0FEF713
:1042B00073FB02463B69D31A022B01D903239BE10E
:1042C0002D4B1B6803F00203002BF0D02A4B1B6818
:1042D00023F0F8027B685B69DB00274913430B601E
:1042E00015E0264B00221A60FEF756FB386108E005
:1042F000FEF752FB02463B69D31A022B01D9032376
:104300007AE11D4B1B6803F00203002BF0D17B68A0
:104310001B6803F00803002B3AD07B689B69002BD5
:1043200019D0174B01221A60FEF736FB386108E0FE
:10433000FEF732FB02463B69D31A022B01D9032355
:104340005AE10D4B5B6A03F00203002BF0D0012011
:1043500000F0CCFA1CE00A4B00221A60FEF71CFBAE
:1043600038610FE0FEF718FB02463B69D31A022BB7
:1043700008D9032340E100BF001002400000424280
:10438000800442429E4B5B6A03F00203002BE9D19A
:104390007B681B6803F00403002B00F0A680002359
:1043A000FB75974BDB6903F08053002B0DD1944BC9
:1043B000DB69934A43F08053D361914BDB6903F08F
:1043C0008053BB60BB680123FB758E4B1B6803F4F5
:1043D0008073002B18D18B4B1B688A4A43F480737F
:1043E0001360FEF7D9FA386108E0FEF7D5FA024605
:1043F0003B69D31A642B01D90323FDE0814B1B6871
:1044000003F48073002BF0D07B68DB68012B06D1AE
:104410007B4B1B6A7A4A43F0010313622DE07B68F1
:10442000DB68002B0CD1764B1B6A754A23F0010325
:104430001362734B1B6A724A23F0040313621CE07D
:104440007B68DB68052B0CD16D4B1B6A6C4A43F013
:10445000040313626A4B1B6A694A43F00103136247
:104460000BE0674B1B6A664A23F001031362644B3F
:104470001B6A634A23F0040313627B68DB68002B2A
:1044800015D0FEF789FA38610AE0FEF785FA024690
:104490003B69D31A41F28832934201D90323ABE03E
:1044A000574B1B6A03F00203002BEED014E0FEF71B
:1044B00073FA38610AE0FEF76FFA02463B69D31AD5
:1044C00041F28832934201D9032395E04C4B1B6A99
:1044D00003F00203002BEED1FB7D012B05D1484BED
:1044E000DB69474A23F08053D3617B68DB69002B8B
:1044F00000F08180424B5B6803F00C03082B61D015
:104500007B68DB69022B46D13F4B00221A60FEF725
:1045100043FA386108E0FEF73FFA02463B69D31AD6
:10452000022B01D9032367E0354B1B6803F00073AE
:10453000002BF0D17B681B6AB3F5803F08D1304B6C
:104540005B6823F400327B689B682D4913434B6002
:104550002B4B5B6823F474127B68196A7B685B6A77
:104560000B43274913434B60274B01221A60FEF788
:1045700013FA386108E0FEF70FFA02463B69D31AD6
:10458000022B01D9032337E01D4B1B6803F0007396
:10459000002BF0D02FE01C4B00221A60FEF7FCF934
:1045A000386108E0FEF7F8F902463B69D31A022B9E
:1045B00001D9032320E0124B1B6803F00073002B8A
:1045C000F0D118E07B68DB69012B01D1012313E0F6
:1045D0000B4B5B68FB60FB6803F480327B681B6AF3
:1045E0009A4206D1FB6803F470127B685B6A9A42B8
:1045F00001D0012300E0002318461837BD4680BDD6
:1046000000100240007000406000424280B584B05B
:1046100000AF786039607B68002B01D10123D0E0C6
:104620006A4B1B6803F007033A689A4210D9674B3C
:104630001B6823F0070265493B6813430B60634B1B
:104640001B6803F007033A689A4201D00123B8E0DF
:104650007B681B6803F00203002B20D07B681B687B
:1046600003F00403002B05D0594B5B68584A43F410
:10467000E06353607B681B6803F00803002B05D0E0
:10468000534B5B68524A43F460535360504B5B6832
:1046900023F0F0027B689B684D4913434B607B68B5
:1046A0001B6803F00103002B40D07B685B68012B83
:1046B00007D1474B1B6803F40033002B15D10123AE
:1046C0007FE07B685B68022B07D1414B1B6803F0DE
:1046D0000073002B09D1012373E03D4B1B6803F0ED
:1046E0000203002B01D101236BE0394B5B6823F0FF
:1046F00003027B685B68364913434B60FEF74CF955
:10470000F8600AE0FEF748F90246FB68D31A41F266
:104710008832934201D9032353E02D4B5B6803F0A9
:104720000C027B685B689B009A42EBD1274B1B68AD
:1047300003F007033A689A4210D2244B1B6823F017
:10474000070222493B6813430B60204B1B6803F0B0
:1047500007033A689A4201D0012332E07B681B6864
:1047600003F00403002B08D0194B5B6823F4E062CC
:104770007B68DB68164913434B607B681B6803F05A
:104780000803002B09D0124B5B6823F460527B684E
:104790001B69DB000E4913434B6000F021F8024611
:1047A0000B4B5B681B0903F00F030A49CB5C22FA31
:1047B00003F3094A1360094B1B681846FEF7AAF871
:1047C000002318461037BD4680BD00BF00200240C0
:1047D000001002405C8A000814000020180000202D
:1047E00080B487B000AF0023FB600023BB600023D0
:1047F0007B6100237B6000233B611E4B5B68FB6099
:10480000FB6803F00C03042B02D0082B03D027E035
:10481000194B3B6127E0FB689B0C03F00F03174A21
:10482000D35C7B60FB6803F48033002B10D0114B0A
:104830005B685B0C03F00103114AD35CBB607B68CF
:104840000D4A02FB03F2BB68B2FBF3F37B6104E0A9
:104850007B680C4A02FB03F37B617B693B6102E0EE
:10486000054B3B6100BF3B6918461C37BD4680BC09
:10487000704700BF0010024000127A00748A0008DE
:10488000848A000800093D0080B400AF024B1B6819
:104890001846BD4680BC70471400002080B500AFAC
:1048A000FFF7F2FF0246054B5B681B0A03F00703A4
:1048B0000349CB5C22FA03F3184680BD0010024086
:1048C0006C8A000880B500AFFFF7DEFF0246054B9B
:1048D0005B68DB0A03F007030349CB5C22FA03F3AE
:1048E000184680BD001002406C8A000880B485B074
:1048F00000AF78600A4B1B680A4AA2FB03235B0ADD
:104900007A6802FB03F3FB6000BFFB685A1EFA6083
:10491000002BF9D100BF00BF1437BD4680BC7047E3
:1049200014000020D34D621080B586B000AF7860CF
:1049300000233B610023FB607B681B6803F00103DD
:10494000002B7DD00023FB754F4BDB6903F08053B8
:10495000002B0DD14C4BDB694B4A43F08053D361A4
:10496000494BDB6903F08053BB60BB680123FB75D7
:10497000464B1B6803F48073002B18D1434B1B6814
:10498000424A43F480731360FEF706F8386108E08A
:10499000FEF702F802463B69D31A642B01D90323C0
:1049A0006DE03A4B1B6803F48073002BF0D0364B5C
:1049B0001B6A03F44073FB60FB68002B2ED07B68FE
:1049C0005B6803F44073FA689A4227D02E4B1B6A47
:1049D00023F44073FB602E4B01221A602C4B002203
:1049E0001A60294AFB681362FB6803F00103002B7D
:1049F00014D0FDF7D1FF38610AE0FDF7CDFF024684
:104A00003B69D31A41F28832934201D9032336E03D
:104A10001D4B1B6A03F00203002BEED01A4B1B6ADE
:104A200023F440727B685B68174913430B62FB7D7C
:104A3000012B05D1144BDB69134A23F08053D3615A
:104A40007B681B6803F00203002B08D00E4B5B68E9
:104A500023F440427B689B680B4913434B607B689F
:104A60001B6803F01003002B08D0074B5B6823F48E
:104A700080027B68DB68044913434B6000231846BF
:104A80001837BD4680BD00BF0010024000700040D6
:104A90004004424280B588B000AF786000237B615B
:104AA0000023FB6100233B610023FB600023BB610B
:104AB0007B68102B0AD07B68102B00F28A807B6801
:104AC000012B45D07B68022B75D082E0464B5B689A
:104AD000FB60454B1B6803F08073002B7BD0FB68A9
:104AE0009B0C03F00F03414AD35C3B61FB6803F46A
:104AF0008033002B15D03C4B5B685B0C03F001034B
:104B00003B4AD35C7B61FB6803F48033002B0DD000
:104B1000384A7B69B2FBF3F23B6902FB03F3FB61AA
:104B200004E03B69344A02FB03F3FB612E4B5B68F4
:104B300003F48003B3F5800F02D1FB69BB614AE047
:104B4000FB695B002D4AA2FB03235B08BB6142E0CB
:104B5000254B1B6AFB60FB6803F44073B3F5807F51
:104B600008D1FB6803F00203002B03D04FF400438D
:104B7000BB611FE0FB6803F44073B3F5007F09D10C
:104B8000194B5B6A03F00203002B03D049F6404344
:104B9000BB610FE0FB6803F44073B3F5407F1CD1A9
:104BA000114B1B6803F40033002B16D04FF2244343
:104BB000BB6112E011E0FFF785FE02460A4B5B681D
:104BC0009B0B03F0030301335B00B2FBF3F3BB6108
:104BD00004E000BF02E000BF00E000BFBB69184670
:104BE0002037BD4680BD00BF00100240888A000803
:104BF000988A000800127A0000093D00ABAAAAAA10
:104C000080B582B000AF78607B68002B01D10123B2
:104C100041E07B6893F83D30DBB2002B06D17B6826
:104C2000002283F83C207868FDF782FA7B68022234
:104C300083F83D207B681A687B6804331946104668
:104C400000F040F97B68012283F846207B6801224E
:104C500083F83E207B68012283F83F207B68012295
:104C600083F840207B68012283F841207B68012281
:104C700083F842207B68012283F843207B6801226D
:104C800083F844207B68012283F845207B68012259
:104C900083F83D20002318460837BD4680BD00003C
:104CA00080B485B000AF78607B6893F83D30DBB2AC
:104CB000012B01D0012332E07B68022283F83D20E2
:104CC0007B681B68184A93420ED07B681B68B3F15F
:104CD000804F09D07B681B68144A934204D07B68DC
:104CE0001B68134A934211D17B681B689B6803F0D1
:104CF0000703FB60FB68062B10D07B681B681A68F3
:104D00007B681B6842F001021A6007E07B681B6841
:104D10001A687B681B6842F001021A60002318467B
:104D20001437BD4680BC7047002C01400004004091
:104D30000008004080B584B000AF7860396000237F
:104D4000FB737B6893F83C30012B01D10223B4E064
:104D50007B68012283F83C207B68022283F83D2097
:104D60007B681B689B68BB60BB6823F07703BB60F4
:104D7000BB6823F47F43BB607B681B68BA689A609A
:104D80003B681B68B3F5005F3ED0B3F5005F00F2EF
:104D90008780B3F5805F00F08680B3F5805F7FD8B1
:104DA000702B1AD0702B7BD8602B50D0602B77D80B
:104DB000502B3CD0502B73D8402B58D0402B6FD861
:104DC000302B64D0302B6BD8202B60D0202B67D8B1
:104DD000002B5CD0102B5AD062E07B6818683B68CF
:104DE00099683B685A683B68DB6800F050F97B685B
:104DF0001B689B68BB60BB6843F07703BB607B6844
:104E00001B68BA689A604FE07B6818683B689968CD
:104E10003B685A683B68DB6800F039F97B681B68BF
:104E20009A687B681B6842F480429A603CE07B6829
:104E300018683B6859683B68DB681A4600F0B0F8B0
:104E40007B681B685021184600F007F92CE07B684E
:104E500018683B6859683B68DB681A4600F0CEF872
:104E60007B681B686021184600F0F7F81CE07B683F
:104E700018683B6859683B68DB681A4600F090F890
:104E80007B681B684021184600F0E7F80CE07B685F
:104E90001A683B681B681946104600F0DEF803E00C
:104EA0000123FB7300E000BF7B68012283F83D20F3
:104EB0007B68002283F83C20FB7B18461037BD46F8
:104EC00080BD000080B485B000AF786039607B6839
:104ED0001B68FB607B682F4A93420BD07B68B3F161
:104EE000804F07D07B682C4A934203D07B682B4AC3
:104EF000934208D1FB6823F07003FB603B685B685A
:104F0000FA681343FB607B68224A93420BD07B68AC
:104F1000B3F1804F07D07B681F4A934203D07B6870
:104F20001E4A934208D1FB6823F44073FB603B6840
:104F3000DB68FA681343FB60FB6823F080023B6880
:104F40005B691343FB607B68FA681A603B689A6888
:104F50007B68DA623B681A687B689A627B680D4AF4
:104F6000934203D13B681A697B681A637B6801220C
:104F70005A617B681B6903F00103002B05D07B6835
:104F80001B6923F001027B681A6100BF1437BD461C
:104F900080BC7047002C0140000400400008004025
:104FA00080B487B000AFF860B9607A60FB681B6AB4
:104FB0007B61FB681B6A23F00102FB681A62FB68D5
:104FC0009B693B613B6923F0F0033B617B681B01FC
:104FD0003A6913433B617B6923F00A037B617A6979
:104FE000BB6813437B61FB683A699A61FB687A6925
:104FF0001A6200BF1C37BD4680BC704780B487B0C2
:1050000000AFF860B9607A60FB681B6A7B61FB687F
:105010001B6A23F01002FB681A62FB689B693B6104
:105020003B6923F470433B617B681B033A6913437C
:105030003B617B6923F0A0037B61BB681B017A693C
:1050400013437B61FB683A699A61FB687A691A626B
:1050500000BF1C37BD4680BC704780B485B000AF30
:10506000786039607B689B68FB60FB6823F07003A5
:10507000FB603A68FB68134343F00703FB607B68FF
:10508000FA689A6000BF1437BD4680BC704780B490
:1050900087B000AFF860B9607A603B60FB689B68DE
:1050A0007B617B6923F47F437B613B681A027B68E9
:1050B0001A43BB6813437A6913437B61FB687A69BF
:1050C0009A6000BF1C37BD4680BC704780B485B075
:1050D00000AF786039607B6893F83C30012B01D1D8
:1050E000022346E07B68012283F83C207B68022291
:1050F00083F83D207B681B685B68FB607B681B68EE
:105100009B68BB60FB6823F07003FB603B681B6817
:10511000FA681343FB607B681B68FA685A607B6817
:105120001B68164A93420ED07B681B68B3F1804F10
:1051300009D07B681B68124A934204D07B681B68C5
:10514000104A93420CD1BB6823F08003BB603B68DC
:105150005B68BA681343BB607B681B68BA689A6077
:105160007B68012283F83D207B68002283F83C2085
:10517000002318461437BD4680BC7047002C014000
:10518000000400400008004080B582B000AF7860A5
:105190007B68002B01D1012342E07B6893F841300A
:1051A000DBB2002B06D17B68002283F840207868B0
:1051B000FCF7DAFF7B68242283F841207B681B68B8
:1051C000DA687B681B6822F40052DA60786800F0C5
:1051D00071F97B681B681A697B681B6822F490422E
:1051E0001A617B681B685A697B681B6822F02A0277
:1051F0005A617B681B68DA687B681B6842F400525E
:10520000DA607B6800225A647B68202283F84120A0
:105210007B68202283F842207B6800225A630023A7
:1052200018460837BD4680BD80B58AB002AFF86029
:10523000B9603B601346FB8000237B61FB6893F8F9
:105240004130DBB2202B75D1BB68002B02D0FB882C
:10525000002B01D101236EE0FB6800225A64FB6839
:10526000212283F84120FDF797FB7861FB68FA88DB
:105270009A84FB68FA88DA84FB689B68B3F5805FE0
:1052800008D1FB681B69002B04D10023FB61BB68BC
:10529000BB6103E0BB68FB610023BB612EE03B68A0
:1052A00000937B6900228021F86800F048F80346EB
:1052B000002B05D0FB68202283F8412003233AE02D
:1052C000FB69002B0BD1BB691B881A46FB681B6866
:1052D000C2F308025A60BB690233BB6107E0FB6995
:1052E0001A78FB681B685A60FB690133FB61FB6835
:1052F000DB8C9BB2013B9AB2FB68DA84FB68DB8CE7
:105300009BB2002BCBD13B6800937B6900224021EC
:10531000F86800F014F80346002B05D0FB68202243
:1053200083F84120032306E0FB68202283F8412014
:10533000002300E0022318462037BD4680BD80B51B
:1053400086B000AFF860B9603B601346FB713BE08C
:105350003B6AB3F1FF3F37D0FDF71EFB02463B68C7
:10536000D31A3A6A9A4202D33B6A002B01D1032333
:105370003AE0FB681B68DB6803F00403002B23D0D2
:10538000BB68802B20D0BB68402B1DD0FB681B68FE
:105390001B6803F00803082B16D100237B61FB6810
:1053A0001B681B687B61FB681B685B687B617B69B2
:1053B000F86800F01DF8FB6808225A64FB680022B8
:1053C00083F8402001230FE0FB681B681A68BB6864
:1053D0001340BA689A420CBF01230023DBB21A467D
:1053E000FB799A42B4D0002318461837BD4680BDD9
:1053F00080B495B000AF78607B681B680C337B632A
:105400007B6B53E8003F3B633B6B23F49073FB647F
:105410007B681B680C33FA6C3A64FB63F96B3A6C7B
:1054200041E80023BB63BB6B002BE5D17B681B68A5
:1054300014333B623B6A53E8003FFB61FB6923F096
:105440000103BB647B681B681433BA6CFA62BB62ED
:10545000B96AFA6A41E800237B627B6A002BE5D1D6
:105460007B681B6B012B19D17B681B680C33FB60BD
:10547000FB6853E8003FBB60BB6823F010037B640C
:105480007B681B680C337A6CBA617B617969BA6995
:1054900041E800233B613B69002BE5D17B6820227A
:1054A00083F842207B6800221A6300BF5437BD4650
:1054B00080BC704780B584B000AF78607B681B68A3
:1054C0001B6923F440517B68DA687B681B680A43D8
:1054D0001A617B689A687B681B691A437B685B6901
:1054E0001343BB607B681B68DB6823F4B05323F075
:1054F0000C037A681268B9680B43D3607B681B6839
:105500005B6923F440717B689A697B681B680A4376
:105510005A617B681B682C4A934203D1FFF7D2F98A
:10552000F86002E0FFF7BAF9F860FA6813469B00EA
:1055300013449A001A447B685B689B00B2FBF3F348
:10554000224AA2FB03235B091901FA6813469B0058
:1055500013449A001A447B685B689B00B2FBF3F229
:105560001A4BA3FB02035B09642000FB03F3D31A6D
:105570001B013233154AA2FB03235B0903F0F0033E
:105580001944FA6813469B0013449A001A447B6836
:105590005B689B00B2FBF3F20C4BA3FB02035B09BD
:1055A000642000FB03F3D31A1B013233074AA2FB2A
:1055B00003235B0903F00F027B681B680A449A60AF
:1055C00000BF1037BD4680BD003801401F85EB513C
:1055D000014B1868704700BF2000002070B50026FE
:1055E0000C4D0D4C641BA410A64209D102F0E2FE42
:1055F00000260A4D0A4C641BA410A64205D170BDBA
:1056000055F8043B98470136EEE755F8043B9847B8
:105610000136F2E77C8E00087C8E00087C8E000844
:10562000808E000803460244934200D1704703F87D
:10563000011BF9E7002B2DE9F0471F46BBBF03F123
:1056400000431F4600232D2388B01446129A109D54
:105650001370149BDDF84CA023F02008B8F1460F1E
:1056600005D0B8F1450F00D10135022300E0032336
:1056700007AA049206AACDE902A2CDE90035224686
:105680003B4600F00DFDB8F1470F064602D1119BD5
:10569000DB0722D5B8F1460F06EB050910D13378A8
:1056A000302B0AD10022002320463946FBF786F929
:1056B00018B9C5F10105CAF80050DAF8003099446C
:1056C0000022002320463946FBF778F908B1CDF8CF
:1056D0001C903022079B4B4507D33046079B159AF9
:1056E0009B1B136008B0BDE8F087591C07911A7026
:1056F000F0E70346F7B5002903F8022BB6BF2D22C9
:105700002B224942092942702BDD0DF10704A446E2
:105710000A2791FBF7F60A46A64607FB1615632AE9
:1057200005F13005314604F1FF340EF8015CF0DC80
:105730003031AEF1020504F8011C2946441C6145D4
:105740000AD30DF10902A2EB0E02654588BF0022C3
:105750001344181A03B0F0BD11F8012B04F8012FFF
:10576000EDE7302330318370C170031DF1E7000095
:105770002DE9F04F91B00C46DDF8688016461F46C3
:10578000054601F07BFA036818460993FAF7EAFC2C
:1057900000230E93D8F800300A90073323F0070354
:1057A00003F1080294F81890D4F800B0C8F800206B
:1057B000D3E90023C4E91223D4E9128A2AF0004372
:1057C0000B934FF0FF3240469C4B0B99FBF728F9A7
:1057D00070BB4FF0FF324046984B0B99FBF702F934
:1057E00030BB0022002340465146FBF7F1F810B1D0
:1057F0002D2384F84330924B9248B9F1470F94BF60
:105800009846804603234FF0000A23612BF00403DF
:10581000236033462146284600970FAA00F0D4F9AA
:10582000013040F090804FF0FF3011B0BDE8F08FB4
:105830004246534640465146FBF7F2F848B1BAF1AA
:10584000000FB8BF2D238048B8BF84F843307F4B8A
:10585000D3E7636809F0DF015A1C42D10623636075
:10586000002206920EAACDE904920DAA4BF48063A1
:1058700003920DF13302CDE90132236063684246A1
:105880000093284653460B91FFF7D4FE0B998046B0
:1058900047290D9908D1C81C02DB6368994240DD95
:1058A000A9F102095FFA89F9B9F1650F1FD84A46D3
:1058B000013904F150000D91FFF71BFF0E9A82464B
:1058C0001318012A236102DC2268D20701D50133B3
:1058D00023619DF83330002B9BD02D2384F8433077
:1058E00097E74729BCD1002BBAD10123B7E7B9F11B
:1058F000660F18D1002963680BDD216113B9226896
:10590000D00702D501330B4423614FF0000AA16593
:10591000DFE713B92268D20701D50233F4E7012388
:10592000F2E74FF067090E9B994205DB236821617E
:10593000D807EAD54B1CE7E70029CCBF0122C1F10B
:1059400002021344E0E723685A0507D4236942465C
:1059500031462846B84701302BD164E7B9F1650FCD
:1059600040F2DD80D4E9120100220023FBF726F883
:10597000002833D0012331462846354AB847013044
:105980003FF451AFDDE90D239A4202DB2368D807CB
:105990000FD5DDE9092331462846B84701303FF4E9
:1059A00042AF4FF0000804F11A090E9B013B43453A
:1059B00009DC23689B0700F10281E0680F9B984295
:1059C000B8BF184631E701234A4631462846B84752
:1059D00001303FF428AF08F10108E6E70D9B002BEA
:1059E00038DC012331462846194AB84701303FF4D4
:1059F0001AAFDDE90D23134302D12368D907D8D5A7
:105A0000DDE9092331462846B84701303FF40BAFA2
:105A10004FF0000904F11A0A0D9B5B424B4501DC73
:105A20000E9B94E70123524631462846B847013081
:105A30003FF4F9AE09F10109EEE700BFFFFFEF7F88
:105A4000A08A0008A48A0008AC8A0008A88A000876
:105A5000B08A00080E9AA36D9A42A8BF1A46002A7F
:105A6000914637DC4FF0000B29EAE97904F11A027C
:105A7000D4F858A0AAEB09035B4533DCDDE90D231C
:105A80009A423BDB2368DA0738D40E9A0D99A2EBD1
:105A90000A03A2EB01099945A8BF9946B9F1000F85
:105AA00034DC4FF0000829EAE97904F11A0ADDE94B
:105AB0000D239B1AA3EB090343457FF77AAF01231C
:105AC000524631462846B84701303FF4ACAE08F1A3
:105AD0000108ECE71346314642462846B8470130F4
